{
  "contractName": "KycContract",
  "abi": [
    {
      "anonymous": false,
      "inputs": [
        {
          "indexed": true,
          "internalType": "address",
          "name": "previousOwner",
          "type": "address"
        },
        {
          "indexed": true,
          "internalType": "address",
          "name": "newOwner",
          "type": "address"
        }
      ],
      "name": "OwnershipTransferred",
      "type": "event"
    },
    {
      "inputs": [],
      "name": "owner",
      "outputs": [
        {
          "internalType": "address",
          "name": "",
          "type": "address"
        }
      ],
      "stateMutability": "view",
      "type": "function",
      "constant": true
    },
    {
      "inputs": [],
      "name": "renounceOwnership",
      "outputs": [],
      "stateMutability": "nonpayable",
      "type": "function"
    },
    {
      "inputs": [
        {
          "internalType": "address",
          "name": "newOwner",
          "type": "address"
        }
      ],
      "name": "transferOwnership",
      "outputs": [],
      "stateMutability": "nonpayable",
      "type": "function"
    },
    {
      "inputs": [
        {
          "internalType": "address",
          "name": "_addr",
          "type": "address"
        }
      ],
      "name": "setKeyCompleted",
      "outputs": [],
      "stateMutability": "nonpayable",
      "type": "function"
    },
    {
      "inputs": [
        {
          "internalType": "address",
          "name": "_addr",
          "type": "address"
        }
      ],
      "name": "setKeyRevoked",
      "outputs": [],
      "stateMutability": "nonpayable",
      "type": "function"
    },
    {
      "inputs": [
        {
          "internalType": "address",
          "name": "_addr",
          "type": "address"
        }
      ],
      "name": "kycStatus",
      "outputs": [
        {
          "internalType": "bool",
          "name": "",
          "type": "bool"
        }
      ],
      "stateMutability": "view",
      "type": "function",
      "constant": true
    }
  ],
  "bytecode": "0x608060405234801561001057600080fd5b50600061001b61006a565b600080546001600160a01b0319166001600160a01b0383169081178255604051929350917f8be0079c531659141344cd1fd0a4f28419497f9722a3daafe3b4186f6b6457e0908290a35061006e565b3390565b61042f8061007d6000396000f3fe608060405234801561001057600080fd5b50600436106100625760003560e01c806346cc599e14610067578063715018a614610090578063717a4bd21461009a5780638da5cb5b146100ad578063e8830281146100c2578063f2fde38b146100d5575b600080fd5b61007a610075366004610331565b6100e8565b6040516100879190610373565b60405180910390f35b610098610106565b005b6100986100a8366004610331565b610198565b6100b56101f8565b604051610087919061035f565b6100986100d0366004610331565b610207565b6100986100e3366004610331565b61026d565b6001600160a01b031660009081526001602052604090205460ff1690565b61010e61032d565b6001600160a01b031661011f6101f8565b6001600160a01b03161461014e5760405162461bcd60e51b8152600401610145906103c4565b60405180910390fd5b600080546040516001600160a01b03909116907f8be0079c531659141344cd1fd0a4f28419497f9722a3daafe3b4186f6b6457e0908390a3600080546001600160a01b0319169055565b6101a061032d565b6001600160a01b03166101b16101f8565b6001600160a01b0316146101d75760405162461bcd60e51b8152600401610145906103c4565b6001600160a01b03166000908152600160205260409020805460ff19169055565b6000546001600160a01b031690565b61020f61032d565b6001600160a01b03166102206101f8565b6001600160a01b0316146102465760405162461bcd60e51b8152600401610145906103c4565b6001600160a01b03166000908152600160208190526040909120805460ff19169091179055565b61027561032d565b6001600160a01b03166102866101f8565b6001600160a01b0316146102ac5760405162461bcd60e51b8152600401610145906103c4565b6001600160a01b0381166102d25760405162461bcd60e51b81526004016101459061037e565b600080546040516001600160a01b03808516939216917f8be0079c531659141344cd1fd0a4f28419497f9722a3daafe3b4186f6b6457e091a3600080546001600160a01b0319166001600160a01b0392909216919091179055565b3390565b600060208284031215610342578081fd5b81356001600160a01b0381168114610358578182fd5b9392505050565b6001600160a01b0391909116815260200190565b901515815260200190565b60208082526026908201527f4f776e61626c653a206e6577206f776e657220697320746865207a65726f206160408201526564647265737360d01b606082015260800190565b6020808252818101527f4f776e61626c653a2063616c6c6572206973206e6f7420746865206f776e657260408201526060019056fea26469706673582212203a8f9b8be6b5371e06ee7774ea6b71f1d5283880efe0233a6966eff858d5f09264736f6c63430008000033",
  "immutableReferences": {},
  "source": "pragma solidity ^0.8.0;\n\nimport \"@openzeppelin/contracts/access/Ownable.sol\";\n\ncontract KycContract is Ownable {\n\n    mapping ( address => bool) allowed;\n\n    function setKeyCompleted (address _addr) public onlyOwner  {\n        allowed[_addr] = true;\n    }\n    \n    function setKeyRevoked(address _addr) public onlyOwner {\n        allowed[_addr] = false;\n    }\n\n    function kycStatus(address _addr) public view returns(bool) {\n        return allowed[_addr];\n    }\n\n}",
  "sourcePath": "/Users/macbookpro4eric/Projects/blockchain/project2_ERC20/contracts/KycContract.sol",
  "compiler": {
    "name": "solc",
    "version": "0.8.0+commit.c7dfd78e.Emscripten.clang"
  },
  "schemaVersion": "3.3.4",
  "updatedAt": "2021-04-02T15:21:26.605Z",
  "networkType": "ethereum",
  "devdoc": {
    "kind": "dev",
    "methods": {
      "owner()": {
        "details": "Returns the address of the current owner."
      },
      "renounceOwnership()": {
        "details": "Leaves the contract without owner. It will not be possible to call `onlyOwner` functions anymore. Can only be called by the current owner. NOTE: Renouncing ownership will leave the contract without an owner, thereby removing any functionality that is only available to the owner."
      },
      "transferOwnership(address)": {
        "details": "Transfers ownership of the contract to a new account (`newOwner`). Can only be called by the current owner."
      }
    },
    "version": 1
  },
  "userdoc": {
    "kind": "user",
    "methods": {},
    "version": 1
  }
}